:1000000015C02DC02CC02BC02AC029C028C027C0B5
:1000100040C12CC072C077C07CC081C084C088C081
:100020008EC093C09BC09DC0A1C0A4C011241FBEA0
:10003000CFE9CDBF10E0A0E6B0E0E8ECF3E002C00D
:1000400005900D92A236B107D9F720E0A2E6B0E004
:1000500001C01D92A037B207E1F79AD1B3C1D0CF4A
:1000600082E287B98FE886B9369A08951F920F9277
:100070000FB60F9211242F933F934F935F936F937B
:100080007F938F939F93AF93BF93EF93FF9385B12C
:100090009091600080916200943031F48F3F11F1B3
:1000A0008F5F8093620007C0833328F084E08093E1
:1000B000600010926200809162008B3098F4349856
:1000C000369AFF91EF91BF91AF919F918F917F9160
:1000D0006F915F914F913F912F910F900FBE0F90B5
:1000E0001F9018957DD0EBCF90E08C30910508F0F3
:1000F00049C0FC01E65FFF4F09948FEF80936C00CD
:1001000010926D003DC08FEF80936C0010926D00D7
:1001100021C08FEF80936C0010926D001CC08FE0A7
:1001200080936C0002C010926C0010926D0005C0AC
:1001300010926C008FE080936D008FEF0CC01092D6
:100140006C008FEF80936D0006C010926C008FEFF3
:1001500080936D008FE080936E00089510926C0084
:1001600003C08FE080936C008FEF08C08FEF809307
:100170006C0004C08FEF80936C008FE080936D0063
:1001800010926E000895EED080936C00EBD08093B7
:100190006D00E8D080936E00E5D0813420F08FEFC1
:1001A00080936F00089510926F000895DBD08093C4
:1001B0006C00D8D080936D00D5D08B3520F08FEFB8
:1001C00080936F00089510926F000895C39A81E79D
:1001D00081BD0895109265001092630080E091C087
:1001E00080916500823069F028F0833089F0843096
:1001F000C1F0089582E08093650010926F0080E066
:1002000073CF83E08093650082B78E77BED0BBCF7B
:1002100084E08093650082B78E77B7D010926E002D
:10022000C5CF81E080936500809163006AC08091B2
:100230006500813041F4809163008F3F21F08F5F32
:10024000809363005ED080916500823041F480919C
:1002500064008B3020F48F5F8093640045CF089555
:1002600080916500813041F480916300882321F002
:1002700081508093630045D080916500823041F4C5
:1002800080916400882321F08150809364002CCFFA
:1002900008951F920F920FB60F9211242F933F9340
:1002A0004F935F936F937F938F939F93AF93BF937E
:1002B000EF93FF9380916500833029F0843029F01B
:1002C00081110EC004C05FDF0BC070DF09C096B3A0
:1002D00088B3892329F087E080936E0080936F00B4
:1002E000FF91EF91BF91AF919F918F917F916F910E
:1002F0005F914F913F912F910F900FBE0F901F90E4
:100300001895ECE6F0E083838083818382830895EF
:1003100080E0F7DF12BE1FBC81E083BF87E287BBAE
:10032000089592B780916C00981710F0C19A01C09F
:10033000C19892B780916D00981710F0C29A01C0D1
:10034000C29892B780916E00981710F0C09A01C0C1
:10035000C09892B780916F00981710F0C59A0895D1
:10036000C5980895809161002FE7622F1FD0892FD3
:1003700066E01CD012D0882319F08093610002C07F
:100380002093610080916100089580936100089539
:10039000BFDF66DE1BDFC5DFFECF002480FD060E5B
:1003A000660F11F08695D1F7802D0895991B79E09D
:1003B00004C0991F961708F0961B881F7A95C9F7F5
:0803C00080950895F894FFCF29
:0203C800040A25
:00000001FF
