:1000000015C037C02CC02BC02AC029C028C027C0AB
:1000100067C16FC09BC0A0C0A5C0AAC0ADC0B1C021
:10002000B7C0BCC0C4C0C6C0CAC0CDC011241FBEAA
:10003000CFE9CDBF10E0A0E6B0E0EEEFF3E002C004
:1000400005900D92A236B107D9F720E0A2E6B0E004
:1000500001C01D92A037B207E1F7B4D1CEC1D0CF15
:10006000C39A82E085BF80E48BBF8ABF88E085BBEE
:1000700008951F920F920FB60F9211242F933F9362
:100080004F935F936F937F938F939F93AF93BF93A0
:10009000EF93FF9387E893E10197F1F700C0000029
:1000A000B399C6D080E0B39B0AC08F5F853151F011
:1000B000E7EAF1E63197F1F700C00000F4CF8431B0
:1000C00009F4B0D0FF91EF91BF91AF919F918F91C3
:1000D0007F916F915F914F913F912F910F900FBE44
:1000E0000F901F90189582E287B98FE886B9369AEB
:1000F00008951F920F920FB60F9211248F939F9322
:1001000085B19091600080916200943031F48F3F0E
:1001100059F08F5F8093620007C0833328F084E03A
:1001200080936000109262003498369A9F918F916C
:100130000F900FBE0F901F90189590E08C30910596
:1001400008F049C0FC01E65FFF4F09948FEF8093F0
:100150006C0010926D003DC08FEF80936C00109288
:100160006D0021C08FEF80936C0010926D001CC059
:100170008FE080936C0002C010926C0010926D00B2
:1001800005C010926C008FE080936D008FEF0CC063
:1001900010926C008FEF80936D0006C010926C007F
:1001A0008FEF80936D008FE080936E000895109222
:1001B0006C0003C08FE080936C008FEF08C08FEF5E
:1001C00080936C0004C08FEF80936C008FE080936D
:1001D0006D0010926E000895DFD080936C00DCD02B
:1001E00080936D00D9D080936E00D6D0813420F0FA
:1001F0008FEF80936F00089510926F000895CCD018
:1002000080936C00C9D080936D00C6D08B3520F0F0
:100210008FEF80936F00089510926F00089581E72B
:1002200081BD0895109265001092630080E083C044
:1002300080916500813069F028F0823089F0833048
:10024000C1F0089581E08093650010926F0080E016
:1002500074CF82E08093650082B78E77B0D0BCCF38
:1002600083E08093650082B78E77A9D010926E00EC
:10027000C6CF10926500809163005DC080916500DB
:10028000811108C0809163008F3F21F08F5F8093C0
:10029000630051D080916500813041F48091640009
:1002A0008B3020F48F5F8093640047CF0895809156
:1002B0006500811108C080916300882321F081507E
:1002C0008093630038D080916500813041F4809143
:1002D0006400882321F08150809364002ECF08951C
:1002E0001F920F920FB60F9211242F933F934F93AB
:1002F0005F936F937F938F939F93AF93BF93EF938E
:10030000FF9380916500823021F0833019F477DF0C
:1003100001C062DFFF91EF91BF91AF919F918F91EB
:100320007F916F915F914F913F912F910F900FBEF1
:100330000F901F901895ECE6F0E083838083818313
:100340008283089580E0F7DF12BE1FBC81E083BF87
:1003500087E287BB089592B780916C00981710F0E0
:10036000C19A01C0C19892B780916D00981710F0A2
:10037000C29A01C0C29892B780916E00981710F08F
:10038000C09A01C0C09892B780916F00981710F082
:10039000C59A0895C5980895809161002FE7622F4E
:1003A00020D0892F66E01DD013D0882319F08093C8
:1003B000610002C0209361008091610008958093E4
:1003C00061000895BFDF8FDE4BDE29DFC4DFFECF83
:1003D000002480FD060E660F11F08695D1F7802D62
:1003E0000895991B79E004C0991F961708F0961B91
:0E03F000881F7A95C9F780950895F894FFCF7D
:0203FE00040AEF
:00000001FF
